{
  "contractName": "CryptoBank",
  "abi": [
    {
      "anonymous": false,
      "inputs": [
        {
          "indexed": true,
          "internalType": "address",
          "name": "user",
          "type": "address"
        },
        {
          "indexed": false,
          "internalType": "uint256",
          "name": "amount",
          "type": "uint256"
        }
      ],
      "name": "Deposit",
      "type": "event"
    },
    {
      "anonymous": false,
      "inputs": [
        {
          "indexed": true,
          "internalType": "address",
          "name": "user",
          "type": "address"
        },
        {
          "indexed": false,
          "internalType": "uint256",
          "name": "amount",
          "type": "uint256"
        }
      ],
      "name": "Staked",
      "type": "event"
    },
    {
      "anonymous": false,
      "inputs": [
        {
          "indexed": true,
          "internalType": "address",
          "name": "from",
          "type": "address"
        },
        {
          "indexed": true,
          "internalType": "address",
          "name": "to",
          "type": "address"
        },
        {
          "indexed": false,
          "internalType": "uint256",
          "name": "amount",
          "type": "uint256"
        }
      ],
      "name": "Transfer",
      "type": "event"
    },
    {
      "anonymous": false,
      "inputs": [
        {
          "indexed": true,
          "internalType": "address",
          "name": "user",
          "type": "address"
        },
        {
          "indexed": false,
          "internalType": "uint256",
          "name": "amount",
          "type": "uint256"
        },
        {
          "indexed": false,
          "internalType": "uint256",
          "name": "reward",
          "type": "uint256"
        }
      ],
      "name": "Unstaked",
      "type": "event"
    },
    {
      "anonymous": false,
      "inputs": [
        {
          "indexed": true,
          "internalType": "address",
          "name": "user",
          "type": "address"
        },
        {
          "indexed": false,
          "internalType": "uint256",
          "name": "amount",
          "type": "uint256"
        }
      ],
      "name": "Withdrawal",
      "type": "event"
    },
    {
      "inputs": [],
      "name": "REWARD_RATE",
      "outputs": [
        {
          "internalType": "uint256",
          "name": "",
          "type": "uint256"
        }
      ],
      "stateMutability": "view",
      "type": "function",
      "constant": true
    },
    {
      "inputs": [],
      "name": "STAKING_DURATION",
      "outputs": [
        {
          "internalType": "uint256",
          "name": "",
          "type": "uint256"
        }
      ],
      "stateMutability": "view",
      "type": "function",
      "constant": true
    },
    {
      "inputs": [
        {
          "internalType": "address",
          "name": "",
          "type": "address"
        }
      ],
      "name": "balances",
      "outputs": [
        {
          "internalType": "uint256",
          "name": "",
          "type": "uint256"
        }
      ],
      "stateMutability": "view",
      "type": "function",
      "constant": true
    },
    {
      "inputs": [
        {
          "internalType": "address",
          "name": "",
          "type": "address"
        }
      ],
      "name": "stakeTimestamps",
      "outputs": [
        {
          "internalType": "uint256",
          "name": "",
          "type": "uint256"
        }
      ],
      "stateMutability": "view",
      "type": "function",
      "constant": true
    },
    {
      "inputs": [
        {
          "internalType": "address",
          "name": "",
          "type": "address"
        }
      ],
      "name": "stakedBalances",
      "outputs": [
        {
          "internalType": "uint256",
          "name": "",
          "type": "uint256"
        }
      ],
      "stateMutability": "view",
      "type": "function",
      "constant": true
    },
    {
      "inputs": [],
      "name": "deposit",
      "outputs": [],
      "stateMutability": "payable",
      "type": "function",
      "payable": true
    },
    {
      "inputs": [
        {
          "internalType": "uint256",
          "name": "amount",
          "type": "uint256"
        }
      ],
      "name": "withdraw",
      "outputs": [],
      "stateMutability": "nonpayable",
      "type": "function"
    },
    {
      "inputs": [
        {
          "internalType": "address",
          "name": "to",
          "type": "address"
        },
        {
          "internalType": "uint256",
          "name": "amount",
          "type": "uint256"
        }
      ],
      "name": "transfer",
      "outputs": [],
      "stateMutability": "nonpayable",
      "type": "function"
    },
    {
      "inputs": [
        {
          "internalType": "uint256",
          "name": "amount",
          "type": "uint256"
        }
      ],
      "name": "stake",
      "outputs": [],
      "stateMutability": "nonpayable",
      "type": "function"
    },
    {
      "inputs": [],
      "name": "unstake",
      "outputs": [],
      "stateMutability": "nonpayable",
      "type": "function"
    },
    {
      "inputs": [
        {
          "internalType": "address",
          "name": "user",
          "type": "address"
        }
      ],
      "name": "getBalance",
      "outputs": [
        {
          "internalType": "uint256",
          "name": "",
          "type": "uint256"
        }
      ],
      "stateMutability": "view",
      "type": "function",
      "constant": true
    }
  ],
  "bytecode": "0x608060405234801561001057600080fd5b5061081c806100206000396000f3fe60806040526004361061009c5760003560e01c80635997bb37116100645780635997bb371461015957806399f853a51461016e578063a694fc3a1461019b578063a9059cbb146101bb578063d0e30db0146101db578063f8b2cb4f146101e357600080fd5b80631460fa87146100a157806327e235e3146100e05780632def66201461010d5780632e175004146101245780632e1a7d4d14610139575b600080fd5b3480156100ad57600080fd5b506100ce6100bc3660046106de565b60016020526000908152604090205481565b60405190815260200160405180910390f35b3480156100ec57600080fd5b506100ce6100fb3660046106de565b60006020819052908152604090205481565b34801561011957600080fd5b50610122610219565b005b34801561013057600080fd5b506100ce600a81565b34801561014557600080fd5b50610122610154366004610700565b610391565b34801561016557600080fd5b506100ce600181565b34801561017a57600080fd5b506100ce6101893660046106de565b60026020526000908152604090205481565b3480156101a757600080fd5b506101226101b6366004610700565b61044b565b3480156101c757600080fd5b506101226101d6366004610719565b610506565b610122610617565b3480156101ef57600080fd5b506100ce6101fe3660046106de565b6001600160a01b031660009081526020819052604090205490565b3360009081526001602052604090205461026e5760405162461bcd60e51b81526020600482015260116024820152704b686f6e6720636f20736f207374616b6560781b60448201526064015b60405180910390fd5b3360009081526002602052604090205461028a90600a90610759565b4310156102d95760405162461bcd60e51b815260206004820152601c60248201527f436875612064656e2074686f69206769616e20727574207374616b65000000006044820152606401610265565b33600090815260016020819052604082205491906064906102fa9084610772565b6103049190610789565b905060006103128284610759565b336000908152600160209081526040808320839055600282528083208390559082905281208054929350839290919061034c908490610759565b9091555050604080518481526020810184905233917f7fc4727e062e336010f2c282598ef5f14facb3de68cf8195c2f23e1454b2b74e910160405180910390a2505050565b336000908152602081905260409020548111156103c05760405162461bcd60e51b8152600401610265906107ab565b33600090815260208190526040812080548392906103df9084906107d3565b9091555050604051339082156108fc029083906000818181858888f19350505050158015610411573d6000803e3d6000fd5b5060405181815233907f7fcf532c15f0a6db0bd6d0e038bea71d30d808c7d98cb3bf7268a95bf5081b65906020015b60405180910390a250565b3360009081526020819052604090205481111561047a5760405162461bcd60e51b8152600401610265906107ab565b33600090815260208190526040812080548392906104999084906107d3565b909155505033600090815260016020526040812080548392906104bd908490610759565b90915550503360008181526002602052604090819020439055517f9e71bc8eea02a63969f509818f2dafb9254532904319f9dbda79b67bd34a5f3d906104409084815260200190565b6001600160a01b0382166105535760405162461bcd60e51b815260206004820152601460248201527344696120636869206b686f6e6720686f70206c6560601b6044820152606401610265565b336000908152602081905260409020548111156105825760405162461bcd60e51b8152600401610265906107ab565b33600090815260208190526040812080548392906105a19084906107d3565b90915550506001600160a01b038216600090815260208190526040812080548392906105ce908490610759565b90915550506040518181526001600160a01b0383169033907fddf252ad1be2c89b69c2b068fc378daa952ba7f163c4a11628f55a4df523b3ef9060200160405180910390a35050565b600034116106675760405162461bcd60e51b815260206004820152601a60248201527f536f207469656e206e61702070686169206c6f6e20686f6e20300000000000006044820152606401610265565b3360009081526020819052604081208054349290610686908490610759565b909155505060405134815233907fe1fffcc4923d04b559f4d29a8bfc6cda04eb5b0d3c460751c2402c5c5cc9109c9060200160405180910390a2565b80356001600160a01b03811681146106d957600080fd5b919050565b6000602082840312156106f057600080fd5b6106f9826106c2565b9392505050565b60006020828403121561071257600080fd5b5035919050565b6000806040838503121561072c57600080fd5b610735836106c2565b946020939093013593505050565b634e487b7160e01b600052601160045260246000fd5b8082018082111561076c5761076c610743565b92915050565b808202811582820484141761076c5761076c610743565b6000826107a657634e487b7160e01b600052601260045260246000fd5b500490565b6020808252600e908201526d536f206475206b686f6e6720647560901b604082015260600190565b8181038181111561076c5761076c61074356fea264697066735822122072ab3f38e142e3900d21d7ce196103a8f00ef2e484d3978135523b4409fa42f764736f6c63430008130033",
  "immutableReferences": {},
  "source": "// SPDX-License-Identifier: MIT\r\npragma solidity ^0.8.19;\r\n\r\ncontract CryptoBank {\r\nmapping(address => uint256) public balances;\r\nmapping(address => uint256) public stakedBalances;\r\nmapping(address => uint256) public stakeTimestamps;\r\nuint256 public constant STAKING_DURATION = 10; //  sa  test nhanh\r\nuint256 public constant REWARD_RATE = 1;\r\n\r\n    event Deposit(address indexed user, uint256 amount);\r\n    event Withdrawal(address indexed user, uint256 amount);\r\n    event Transfer(address indexed from, address indexed to, uint256 amount);\r\n    event Staked(address indexed user, uint256 amount);\r\n    event Unstaked(address indexed user, uint256 amount, uint256 reward);\r\n\r\n    function deposit() external payable {\r\n        require(msg.value > 0, \"So tien nap phai lon hon 0\");\r\n        balances[msg.sender] += msg.value;\r\n        emit Deposit(msg.sender, msg.value);\r\n    }\r\n\r\n    function withdraw(uint256 amount) external {\r\n        require(balances[msg.sender] >= amount, \"So du khong du\");\r\n        balances[msg.sender] -= amount;\r\n        payable(msg.sender).transfer(amount);\r\n        emit Withdrawal(msg.sender, amount);\r\n    }\r\n\r\n    function transfer(address to, uint256 amount) external {\r\n        require(to != address(0), \"Dia chi khong hop le\");\r\n        require(balances[msg.sender] >= amount, \"So du khong du\");\r\n        balances[msg.sender] -= amount;\r\n        balances[to] += amount;\r\n        emit Transfer(msg.sender, to, amount);\r\n    }\r\n\r\n    function stake(uint256 amount) external {\r\n        require(balances[msg.sender] >= amount, \"So du khong du\");\r\n        balances[msg.sender] -= amount;\r\n        stakedBalances[msg.sender] += amount;\r\n        stakeTimestamps[msg.sender] = block.number;\r\n        emit Staked(msg.sender, amount);\r\n    }\r\n\r\n    function unstake() external {\r\n        require(stakedBalances[msg.sender] > 0, \"Khong co so stake\");\r\n        require(block.number >= stakeTimestamps[msg.sender] + STAKING_DURATION, \"Chua den thoi gian rut stake\");\r\n\r\n        uint256 stakedAmount = stakedBalances[msg.sender];\r\n        uint256 reward = (stakedAmount * REWARD_RATE) / 100;\r\n        uint256 total = stakedAmount + reward;\r\n\r\n        stakedBalances[msg.sender] = 0;\r\n        stakeTimestamps[msg.sender] = 0;\r\n        balances[msg.sender] += total;\r\n\r\n        emit Unstaked(msg.sender, stakedAmount, reward);\r\n    }\r\n\r\n    function getBalance(address user) external view returns (uint256) {\r\n        return balances[user];\r\n    }\r\n\r\n}\r\n",
  "sourcePath": "C:\\Users\\Nitro 5\\Desktop\\ProjectBlockChain\\CryptoBank\\contracts\\Bank.sol",
  "compiler": {
    "name": "solc",
    "version": "0.8.19+commit.7dd6d404.Emscripten.clang"
  },
  "schemaVersion": "3.4.16",
  "updatedAt": "2025-06-14T15:58:35.386Z",
  "networkType": "ethereum",
  "devdoc": {
    "kind": "dev",
    "methods": {},
    "version": 1
  },
  "userdoc": {
    "kind": "user",
    "methods": {},
    "version": 1
  }
}